:020000040800F2
:10000000600B0020A10400080D0500081D05000874
:10001000D5060008E5060008F50600080000000007
:100020000000000000000000000000008304000841
:10003000050700080000000071040008070200081E
:10004000070200080702000807020008070200086C
:100050000702000807020008790F0008790F00085E
:10006000790F0008790F0008790F000807020008CF
:10007000070200080702000807020008070200083C
:10008000070200080702000807020008070200082C
:10009000070200080702000807020008790F00089D
:1000A000070200080702000807020008070200080C
:1000B000BD10000807020008070200080702000838
:1000C00007020008070200080702000807020008EC
:1000D00007020008070200081112000807020008C2
:1000E000790F00080702000807020008070200084D
:1000F00007020008070200080702000807020008BC
:1001000000000000000000000000000007020008DE
:10011000070200080702000807020008070200089B
:10012000070200080702000807020008070200088B
:10013000070200080702000800000000000000009D
:10014000070200080702000807020008000000007C
:10015000000000000000000000000000000000009F
:10016000000000000000000007020008070200086D
:10017000070200080000000000000000000000006E
:10018000000000000702000800F0DCBA70B50C4661
:10019000064600F009F9094B094A1D6829199142E0
:1001A00002D8084A914204D20C2333604FF0FF3545
:1001B00000E0196000F000F9284670BD0000002042
:1001C00000300020600B00201046194600F0C4BA31
:1001D0001046194600F0D4BA132303604FF0FF30E5
:1001E0007047132303604FF0FF3070471323036001
:1001F0004FF0FF30704702294FF0000303608CBFBF
:1002000000200120704700F085BA000008B50B4BB4
:100210001A680C4672B9012203281A6003D171468C
:10022000074801F0BFFA0748214601F0BBFA06482B
:1002300001F0B8FA00F0B8F800F0C6F8800000202D
:100240002E250008322500084E250008114B70B5F8
:1002500000241C60104B114D18682E6800F09CF8AB
:100260000F4B53F820301B68A3F1080296420FD0C1
:1002700026B13179082904BF09213171082103F819
:10028000041C33F8021C074B2A601980012070BD42
:10029000204670BD8400002058010020100100207D
:1002A000140100200C010020072930B5037919D969
:1002B000072B32D842791A4B53F8225000F1080428
:1002C0002DB12D68856053F822502C6000E08460C9
:1002D00043F82240134C4279012303FA02F22368C7
:1002E000134319E0072B18D945790D4B53F82520F6
:1002F0003AB11468A2420BBF0022246843F82520BB
:100300001460427953F822303BB9064C012303FABA
:1003100002F2236823EA02032360017130BD00BFAB
:10032000140100205801002008B50A4B1B685A79B7
:100330001B79072B01D982420AD900F040F818B185
:10034000054B01221A6008BDBDE8084000F088B8DE
:1003500008BD00BF100100208400002008B500F097
:1003600023F8094B094A1B88094D1BB2002442F8A7
:100370002340084A286813682146013B1360FFF7B1
:1003800093FF2C6000F068F80C010020880000202A
:1003900010010020540100200023C20702D44008AD
:1003A0000133FAE718467047EFF3108072B67047D2
:1003B00062B6EFF31080704780F310887047EFF358
:1003C0000580C0B27047000008B5EFF30581C1F3A6
:1003D000080119B10448103901F0E4F900BE042005
:1003E00000F0A0F9FBE700BF5C250008134423F0F0
:1003F000030310B54FF077321C1F43F8042C62073B
:1004000042BF4FF0883243F8082CA3F108044FF0A4
:10041000807304E909000F4B44F80C3C002344F8B6
:10042000103C032344F8143C2246022344F8183CB1
:10043000012344F81C3C42F8201D0B2342F8043DE4
:10044000013B032BFAD120466FF0020340F8443DF4
:1004500010BD00BF5D030008FFF7AAFF01DFFEE744
:10046000024A536843F080535360704700ED00E048
:10047000EFF3098020E9F00F40F804ED0649096820
:100480000860FFF7E3FE04480068016801C9B1E8AD
:10049000F00F81F309880047100100207047704772
:1004A00008B5FFF7FBFF6A46114B934203D211498F
:1004B00043F8041BF9E7104A104B11498B4204D250
:1004C00052F8041F43F8041BF7E70E4B0E4A934201
:1004D00003D2002243F8042BF8E7FFF7E0FF00F017
:1004E0002BFB01F02DF9BDE8084000F047BB00BF31
:1004F00060090020FEE7FEE7B829000800000020A0
:1005000080000020800000205C09002008B5042045
:100510000149FFF77BFE00BF6B2500080D490E4A1D
:100520000E4B6846904203D8984201D9002102E060
:1005300009468D46012104207246024202D1EFF3A2
:10054000088001E0EFF309802DE9F00F6B4600F021
:1005500007F800BF600B002000300020600500207D
:100560002DE9F04F9846454B91461A68444B9A4204
:100570008DB004460D4602D0424801F089F91DB104
:10058000414801F085F975E0404BE0689A6B0292B2
:100590005A6B03929D6ADA6A04921A6BDB6B0592BE
:1005A000069394E80E00D4F81CA0079060690890A8
:1005B0001AF4007F3648D4F810B0A7690B930CBF2B
:1005C00004F1200604F124060A92099101F060F971
:1005D000079B009309A90EC92E4801F0E3F8089A79
:1005E000CDF800A03B4659462B4801F0DBF82B48DC
:1005F00001F04EF929462A4801F0D4F80499294817
:1006000001F0D0F80599284801F0CCF82748069960
:1006100001F0C8F82A0403D52548029901F0C2F870
:100620002B0603D52348039901F0BCF8224801F0BA
:100630002FF94946214801F0B5F8214801F028F981
:100640003946204801F0AEF869461F4BC91A03D558
:100650001E48494201F0A6F820468268C368016935
:100660008C4641698E46B546414691E8F00F416897
:10067000006801BE05201649FFF7C8FD600900208B
:10068000FEE7FEE7772500088D25000800ED00E075
:10069000BC250008D72500081426000852260008AB
:1006A0005B2600086B2600087B2600088B260008C6
:1006B0009B260008AB260008BB260008C0260008C1
:1006C000D226000803270008B80A00202B270008BC
:1006D0005827000808B506200149FFF797FD00BF1D
:1006E0006B27000808B507200149FFF78FFD00BF01
:1006F0007E27000808B508200149FFF787FD00BFE5
:100700009027000808B509200149FFF77FFD00BFC9
:10071000A427000808B50A200149FFF777FD00BFAC
:10072000B62700080020704708B5044800F0A8FD6F
:100730000348BDE8084000F07DBA00BF0400002077
:100740009C01002000204FF4E131024A034600F0F2
:1007500005BD00BF2907000838B505460C46064808
:100760002946224600F076FD20B90121034800F019
:1007700031FAF4E738BD00BF040000209C010020DE
:1007800010B503460C4600201946224600F030FD05
:10079000204610BD002000F04CBC0000054B024676
:1007A000186828B9002A014608BF012200F008BCD9
:1007B000704700BFA401002010B5094A13685BB15F
:1007C0009C6881688C4202D21A461B68F7E703D105
:1007D0005C6841688C42F7D90360106010BD00BFAF
:1007E000B0010020F0B51E4E1E4D33681E4C013383
:1007F00033601E4B00201A6818602B68226019466F
:10080000B64621B1DEF800708E68BE4202D929607A
:1008100018B9F0BD08460968F3E700210160E2B1AC
:1008200033B151685868814294BF1146194600E0BF
:100830001146084612681B680AB903600BE00BB941
:10084000026008E055685E68B54294BF15461D46D3
:1008500005602846EEE72160F0BD2360F0BD00BFD3
:10086000A8010020B0010020AC010020A001002060
:10087000F8B52C4F2C4C01233B60236833B9FFF7AC
:10088000B1FFFFF787FF0130FBD02FE0FFF782FFBA
:10089000054610E0864205D923685E68FFF77AFFB7
:1008A000A842F7D223681A68226000225A609A6030
:1008B0001869DA689047236823B9FFF76BFF854210
:1008C0000BD911E05E68FFF765FFA842E4D38642CA
:1008D000E2D9361A132EF0D8DEE7236843B9FFF7C2
:1008E00059FFA84206460BD2FFF77CFF0025E2E73E
:1008F0005E68FFF74FFF053E14308642DBD309E008
:1009000010F1140F04D3FFF745FFB042FBD2EBE721
:100910004FF0FF3600233B603046BDE8F840FFF75C
:100920003DBF00BFA4010020AC010020144B1A6899
:1009300082420AD112681A6012B15068053801E08B
:100940004FF0FF30FFF72ABF13461A6822B18242E8
:10095000FAD102681A6070470A4A13681BB18342D1
:1009600003D01A46F9E7084A05E0036813607047A8
:100970008342FAD01A461368002BF9D1704700BFA2
:10098000AC010020A0010020B001002008B500202B
:1009900003460549054A00F063FB4FF0FF30BDE810
:1009A0000840FFF7FBBE00BF40420F00710800087F
:1009B000F8B504460D46FFF7EDFE002385420646D6
:1009C000236010D3A5F11E0383420CD21E35FFF71E
:1009D000E1FEA842FBD8FFF7DDFEA842FBD3E368A7
:1009E000206998473EE0FFF7DFFC63680746002B6D
:1009F00034D1A368002B31D11B4B65601A681B688A
:100A0000B54238BF0132A260A2689A4203D920469B
:100A1000FFF7D2FE1EE0AE4202D2144B19460EE0A2
:100A2000134A136823B15968A94201D81A46F8E756
:100A3000236014600EE05068A84203D813461A6879
:100A4000002AF8D122601C600B68A34202D1681F03
:100A5000FFF7A4FE3846FFF7AFFC03E02046FFF7A0
:100A600065FFC9E70020F8BDA8010020AC01002007
:100A7000A001002038B50446FFF796FC63680546E0
:100A800033B9A36823B92846BDE83840FFF794BCC2
:100A90002046FFF74BFFF6E7C36870B505460C46E6
:100AA000C3B1FFF7E7FF1D2C0CD8FFF773FE064616
:100AB000FFF770FE801BA042FAD3EB682869BDE8FF
:100AC00070401847FFF766FE01192846BDE87040E0
:100AD000FFF76EBF70BD00002DE9F84304460E46D7
:100AE00090461AB9BDE8F843FFF7D6BFFFF75CFCA4
:100AF00063680746D3B9A368C3B9FFF74BFE0D4B34
:100B000081461D68FFF746FE8145F6D83044A56052
:100B1000B042454438BF01356060A5602046FFF70C
:100B20004BFE3846BDE8F843FFF746BC2046FFF7CA
:100B3000FDFEE2E7A801002008B500F04DF90348EA
:100B40000121BDE8084000F0A9B900BF0500004838
:100B500008B500F0D9FC034800F024FE00F0A6FB25
:100B6000002008BDC427000808B5034B01201B68FE
:100B7000FFF7D8FDF9E700BFB40800201FB5FFF765
:100B800013FC0E4B009300240D4B01941B68029341
:100B90004FF480710F220C230A4800F0A3F80A4B8F
:100BA0000A488DE818000A4B1B6802934FF4C06195
:100BB00007220C2300F096F8FFF74EFC690B0008A3
:100BC00014000020B4010020510B0008B4020020E2
:100BD0001800002070B505460C46FFF7E5FB2B68B2
:100BE00006462BB94FF0FF332B60FFF7E5FB18E00B
:100BF000CCB10F4B1C6802212046FFF755FB2B6838
:100C0000013305D104F108032B600023A36003E046
:100C10002846214600F04EF83046FFF7CDFBFFF79F
:100C20001FFC012070BDFFF7C7FB204670BD00BF51
:100C30001001002070B50446FFF7B6FB2568064694
:100C40001DB16B1C05D100232360BDE87040FFF788
:100C5000B3BB2846092150F808392360FFF724FB6D
:100C6000236813B94FF0FF33236015F8034C304667
:100C7000FFF7A2FB2046BDE87040FFF755BB000020
:100C800008B5FFF791FB094B1B681A79072A07D9AA
:100C90005A79074B53F8221011B1096843F8221012
:100CA000FFF78AFBBDE80840FFF7DABB1001002020
:100CB0001401002038B50B79072B03D9032008490C
:100CC000FFF7A4FA4C7901F1080203682BB113F87D
:100CD000035CA54201D81846F7E78B60026038BD77
:100CE0001C2500080F2A2DE9F74F81468846164635
:100CF0001F4666D810F003051BBFC5F10405A944C3
:100D00000D464D1B303D25F0030C190709EB0C0473
:100D100005D54B46A34204D21B600433FAE7C9F859
:100D20000090CDF804C0FFF73FFBDDF804C0834618
:100D30000123274A52F823501FFA83FA35BB42F8A1
:100D400023400C98A4F806A04A4663460D99FFF785
:100D50004DFB204A0E9BA3624FF0FF33E361136803
:100D6000206001331360FA07C4F82490C4F82C8083
:100D700066712571A560E56025616561A5612562E3
:100D80000DD520460121FFF78FFA15E00133212B05
:100D9000CFD15846FFF710FB4FF6757013E0204691
:100DA0000921FFF781FA7B0706D45846FFF704FBB9
:100DB0003046FFF7B9FA02E05846FFF7FDFA504611
:100DC00001E04FF6EA7000B203B0BDE8F08F00BF5B
:100DD000880000205401002008B500F09DFB2D4B39
:100DE000002159601A6822F0867222F480321A605B
:100DF00099601A6842F480321A601A461168254BCD
:100E00008903FBD5596821F0F00159605968596090
:100E1000596821F46051596059685960596821F442
:100E2000E0615960596841F480615960596821F462
:100E30007C115960596841F4E8115960196841F012
:100E400080711960136813499B01FBD5124B002078
:100E50001860186840F010001860186820F007004B
:100E60001860186840F0020018604B6823F0030314
:100E70004B604B6843F002034B6053680549180709
:100E8000FBD50B6823F001030B6013689B07FCD4B0
:100E900008BD00BF0010024000200240F0B51C4E0B
:100EA00020F00F03746900F00F054FF40032C0F317
:100EB000832082402243726103206E001C68B04090
:100EC0006FEA000E0EEA04041C601F6801F00304C0
:100ED000B4403C431C60DA680EEA0202DA60DC6867
:100EE000C1F38102B2402243DA605C680122AA4069
:100EF00024EA02045C605C68C1F30011A94021434C
:100F00005960996892B2084398605A830020F0BDF6
:100F10000010024020F00F0300F00F0210B5186817
:100F200054000321A140014214BF5B691B690120E9
:100F30009040184010BD20F00F02012300F00F0078
:100F400083409BB21383704720F00F02012300F00F
:100F50000F0083409BB25383704710B50446FFF7E0
:100F6000D9FF20B12046BDE81040FFF7EDBF204675
:100F7000BDE81040FFF7DFBF0E4B70B55A691E6821
:100F8000002416401D460123A340334207D06B6165
:100F9000094B03EBC40253F83430506898470134CE
:100FA000102CF0D1054B1B681BB1BDE87040FFF75A
:100FB00067BE70BD00040140B80800208400002016
:100FC000002833D1032931D8DFE801F0020D1823BE
:100FD0004FF080435A631A6922F002021A61DA68FC
:100FE00042F002021FE04FF080439A631A6922F038
:100FF00004021A61DA6842F0040214E04FF0804300
:10100000DA631A6922F008021A61DA6842F008020B
:1010100009E04FF080431A641A6922F010021A6145
:10102000DA6842F01002DA60002070474FF0FF30BB
:10103000704718B94FF08043586A704700207047D6
:1010400028B94FF08042136843F0010313607047E2
:1010500018B9024B4FF080521A60704700E100E06F
:1010600070B50446F8B9114EF56945F00105F56112
:101070000F4D102685F81C630E4D85E80C004FF0CF
:1010800080430D4AB2FBF1F1013918605860996252
:101090005A6942F001025A61FFF7DAFF2046FFF772
:1010A000CFFF204670BD4FF0FF3070BD00100240F2
:1010B00000E100E03809002000A24A0408B54FF022
:1010C00080431A6992070CD5DA6822F00202DA60CE
:1010D0001A6922F002021A611E4B00211A68586830
:1010E0002EE01A6950070CD5DA6822F00402DA60A3
:1010F0001A6922F004021A61164B01211A68586815
:101100001EE01A6911070CD5DA6822F00802DA60CD
:101110001A6922F008021A610E4B02211A685868F7
:101120000EE01A69D2060CD5DA6822F01002DA60F5
:101130001A6922F010021A61064B1A6858680321D6
:101140009047054B1B681BB1BDE80840FFF798BDF1
:1011500008BD00BF380900208400002030B50028F9
:1011600039D11E4CE56945F40035E561656945F402
:10117000003565614FF09044256825F0F005256045
:10118000256845F0A0052560256A25F4704525628F
:10119000256A45F4E0452562256A25F470652562D7
:1011A000256A45F4E06525620D4CB4FBF1F10D4C68
:1011B00089B2E160A0606060216841F00D012160AA
:1011C000094981E80C00094B40225A60236843F02A
:1011D0002003236030BD4FF0FF3030BD00100240CF
:1011E00000512502004400404009002000E100E0D9
:1011F00050B90A44914207D0044BD8690006FBD588
:1012000011F8010B1885F5E7704700BF0044004056
:1012100008B50D4BDA69910606D5998C0B4BC9B20E
:101220001A685868904706E0DA69120742BF1A6ADE
:1012300042F008021A62064B1B681BB1BDE8084069
:10124000FFF71EBD08BD00BF00440040400900205C
:101250008400002070B5013913467BB18568C468ED
:10126000A5420BD084680668651C85604568013D11
:101270002C40013B345D01F8014FEEE7D01A70BD00
:10128000C368426830B584681B1B93421FBFC368A4
:10129000046802F1FF325D1C1FBF1340C560E154BA
:1012A000002008BF4FF0FF3030BD00002DE9F043B3
:1012B000082187B08548864EFFF7F0FDFFF766FBF3
:1012C00001218448FFF7EAFD01218348FFF7E6FD8D
:1012D00001218248FFF7E2FD08218148FFF7DEFD8A
:1012E00000247C483470FFF726FE7B48FFF72CFE75
:1012F0007A48FFF729FE7B4B049308230DEB03008C
:1013000004A98DF814408DF8153000F04DF9013026
:1013100002D1754800F046FA744800F043FA744967
:10132000744800F03FFA7448744900F03BFA002713
:1013300001A90DF1060202A800F060F90137BDF81D
:101340000410BDF806900F2297FBF2F2C2EB0212D6
:1013500097424FF00A040DB20FFA89F395FBF4F5AA
:1013600093FBF4F4ADB2A4B211D11E2297FBF2F3B9
:1013700002FB13735BB1C5EB4533C5EB830301EB94
:1013800043035F4801212AB21BB200F00BFA4FF071
:101390001E0897FBF8F308FB1378B8F1000F0CD187
:1013A000C4EB4433C4EB830309EB430354480221E9
:1013B00022B21BB200F0F6F947463378032B7AD8F5
:1013C000DFE803F002232D5624B22A2C07DD012387
:1013D00040483370FFF7B8FD3F48FFF7ACFD404889
:1013E000FFF798FD38B902233A483370FFF7ACFD98
:1013F0003948FFF7A0FD2DB21E2D5CDD03233548D3
:101400003370FFF7A1FD34482EE024B2292CE6DC2E
:10141000002331483370FFF797FD2E48DDE72E4853
:10142000FFF79BFD2E48FFF775FD002813DD002315
:101430002948337024B2FFF787FD2648FFF77BFD6C
:101440002A2C08DD224B234801221A70FFF77CFD6D
:101450002148FFF770FD2DB21E2D2CDD03231E4801
:101460003370FFF771FD1B48FFF76EFD1B4820E04E
:101470002DB21D2D1FDC00231848337024B2FFF756
:1014800063FD1448FFF757FD2A2C08DD104B114867
:1014900001221A70FFF758FD0F48FFF74CFD104866
:1014A000FFF738FD38B902230A483370FFF74CFDC7
:1014B0000948FFF740FD4FF090442025258311484F
:1014C000002100F013F9A56232E700BF0D080048C3
:1014D00048090020030400480404004805040048AB
:1014E0000A04004807080048192800083A2800089C
:1014F000B32800088B280008BF280008E12800084E
:10150000E928000840420F0008B5FFF73FFABDE8A0
:10151000084000F05FB80000104BD3F8882042F478
:101520007002C3F888204FF000629A60102283F89E
:101530002220DA77002202F1604101F56141013297
:101540001020522A81F80003F5D11A6902431A616A
:101550005A6942F400725A61704700BF00ED00E022
:101560002DE9F0410025074688462C46454518DA06
:101570006400A4B23846FFF7CDFC0028FAD0002062
:10158000FFF757FD06463846FFF7C4FC0028FAD19E
:10159000FFF74FFD801B282888BF44F00104013568
:1015A000E4E72046BDE8F08110B50446082200F0CB
:1015B000EDF820680121FFF771FC431C07D020687B
:1015C000FFF7B9FC0248002100F090F8002010BDA0
:1015D00080841E0008B506480649FFF7E5FF00288D
:1015E00005DA05480021BDE8084000F0DBB808BD79
:1015F0004C09002018290008F32800082DE9F047BD
:101600000446006817460E46FFF79EFC002144F68C
:10161000206000F06BF82068FFF78DFC2820002187
:1016200000F064F820686179FFF738FC2068FFF764
:1016300071FC0028FAD02068FFF76CFC8046002877
:10164000F9D110212068FFF78BFF10218146206817
:10165000FFF786FF082105462068FFF781FF01217B
:1016600082462068FFF71AFC2068FFF764FCC5F388
:101670000F2109EB0503C9F30F220B441344DBB21E
:101680005FFA8AFA534519D1C3B123796BB1012BA3
:1016900017D1ABB21A0444BFC5F30E056D42A7F8CB
:1016A00000904CBF358033800BE001EB810102EBF1
:1016B00082024900520031803A8004E04FF0FF3846
:1016C00001E06FF001084046BDE8F087FFF7B2BACD
:1016D00038B504460020FFF7ACFC05460020FFF7B4
:1016E000A8FC401BA042F9D338BD000030B587B03C
:1016F00005460C46FEF763FE40B11CB103200E49BF
:10170000FEF784FD2846FFF7E3FF13E00B4B009044
:1017100003900290012168460493CDF814D0FFF79E
:1017200059FA01A829462246FFF7D6F96846012151
:10173000FFF750FA07B030BD1C250008CD16000891
:1017400070B50E4B0E4CE41AA41000251E46A5429F
:1017500004D056F8253098470135F8E7FEF714FD18
:10176000084C094BE41AA41000251E46A54204D0DB
:1017700056F8253098470135F8E770BDBC290008B8
:10178000BC290008BC290008BC29000810B5431E6C
:101790000A44914204D011F8014B03F8014FF8E7D5
:1017A00010BD00000FB40A4B13B51C6824B1A36927
:1017B00013B9204600F022FA05AB2046A168049A2E
:1017C000019300F0BBFB02B0BDE8104004B07047CD
:1017D0007C00002070B50E46054618B183690BB930
:1017E00000F00CFAAC68A389190701D5236983B905
:1017F0002846214600F0A8F858B14FF0FF3070BDE0
:10180000002B0EDB236816F8012C1A7023680133B5
:101810002360A36816F8012B013BA360002AEFD1D7
:1018200016E0A269934209DB236816F8012C1A70AE
:10183000236819780A29EAD1284602E016F8011C23
:101840002846224600F02CF8421C50425041D3E773
:10185000002B15DAA269934208DB23680A221A706A
:101860002368197891420FD1284601E028460A21C1
:10187000224600F015F8431C5842584130B1BCE7ED
:1018800023680A221A702368013323600A2070BD7E
:10189000024B01461868FFF79DBF00BF7C00002087
:1018A00070B50D461446064618B183690BB900F0B1
:1018B000A5F9224B9C4201D1746808E0204B9C4260
:1018C00001D1B46803E01F4B9C4208BFF468A369D0
:1018D000A360A3891A0709D523693BB1236820694E
:1018E000181A63699842EDB20FDB08E030462146D2
:1018F00000F02AF80028F1D04FF0FF3070BD3046DC
:10190000214600F011F90028F6D1A368013BA3603D
:1019100023685A1C22601D7063690130984204D00C
:10192000A389DB0707D50A2D05D13046214600F0F3
:10193000FBF80028E0D1284670BD00BF2829000828
:101940004829000868290008314B70B51D68064613
:101950000C4625B1AB6913B9284600F04FF92D4B61
:101960009C4201D16C6808E02B4B9C4201D1AC68D1
:1019700003E02A4B9C4208BFEC68A3899AB2110786
:101980001DD4D50602D40922326038E0500712D5A2
:10199000616B41B104F14403994202D0304600F03A
:1019A0000BFA00236363A38923F02403A38100239C
:1019B000636023692360A38943F00803A38123693B
:1019C0004BB9A38903F42073B3F5007F03D03046ED
:1019D000214600F09BF9A38913F0010205D00022F3
:1019E000A26062695242A26103E0990758BF62692E
:1019F000A26022694AB903F0800080B230B143F09E
:101A00004003A3814FF0FF3070BD002070BD00BFC8
:101A10007C000020282900084829000868290008BF
:101A20008A892DE9F041054610070C4657D44B68CA
:101A3000002B02DC0B6C002B18DDE66AB6B102F459
:101A40008052002392B22F682B600AB1626D10E0C1
:101A5000216A28460123B047411C024609D12B6860
:101A60003BB11D2B01D0162B47D12F600020BDE8C4
:101A7000F081A3895B0705D56368D21A636B0BB14C
:101A8000236CD21AE66A216A00232846B047461C16
:101A9000A38905D12A681AB11D2A01D0162A19D1A5
:101AA00000226260D9042269226004D5421C01D15F
:101AB0002B6803B96065616B2F600029D6D004F1F3
:101AC0004403994202D0284600F076F90020606372
:101AD000BDE8F08143F04003A381BDE8F0810F69C8
:101AE000002FC3D093070E6808BF4B690F6018BF63
:101AF0000023C7EB06088B6012E0A38943F0400384
:101B0000A3814FF0FF30BDE8F0812846216AA66A24
:101B10003A464346B0470028EFDD0744C0EB0808CB
:101B2000B8F1000FF1DCA1E738B50B6905460C46AA
:101B3000DBB118B183690BB900F060F80C4B9C4223
:101B400001D16C6808E00B4B9C4201D1AC6803E00A
:101B5000094B9C4208BFEC68B4F90C302BB1284605
:101B60002146BDE83840FFF75BBF002038BD00BF0D
:101B7000282900084829000868290008014900F0C0
:101B8000A7B800BF291B0008002310B50446036056
:101B90004360836081814366C281036143618361E5
:101BA00019465C30082200F0FFF8054B6362054BD4
:101BB000A362054BE362054B2462236310BD00BFA3
:101BC000792400089B240008D3240008F724000887
:101BD00070B568234D1E5D430E4605F1740100F09B
:101BE0002FF9044640B1002180E842000C30A0608B
:101BF00005F1680200F0D8F8204670BD836910B581
:101C0000044633BB8364C3640365124B124A1B68EA
:101C10008262984204BF0123836100F01FF8606074
:101C2000204600F01BF8A060204600F017F80421C1
:101C3000E06000226068FFF7A7FFA0680921012289
:101C4000FFF7A2FFE06812210222FFF79DFF0123A8
:101C5000A36110BD242900087D1B0008F8B51B4BAB
:101C60001E68B369074613B93046FFF7C7FF483609
:101C7000B4687368013B04D4B4F90C5075B168348E
:101C8000F8E733682BB938460421FFF7A1FF30602D
:101C900008B13668ECE70C233B60F8BD4FF6FF73E4
:101CA000E3810123A38165662560A56065602561E8
:101CB0006561A56104F15C002946082200F074F812
:101CC0006563A563A564E5642046F8BD2429000882
:101CD0002DE9F8438046894600F14804002694B176
:101CE000A5686768013F0CD4AB89012B07D9B5F90A
:101CF0000E30013303D040462946C84706436835B5
:101D0000F0E72468EBE73046BDE8F883F0B58B894F
:101D10009D0791B006460C4626D4B1F90E10002955
:101D200009DAA38913F0800F4FF0000514BF402794
:101D30004FF480670DE001AAFEF758FA0028F0DBA7
:101D4000029D05F47045A5F500514D424D414FF4FB
:101D500080673046394600F073F860B9A3899A0568
:101D60001DD443F00203A38104F1470323602361E0
:101D70000123636113E00B4BB362A389206043F03E
:101D80008003A381206167614DB13046B4F90E1024
:101D9000FEF731FA18B1A38943F00103A38111B012
:101DA000F0BD00BF7D1B000802440346934202D0F1
:101DB00003F8011BFAE7704730B500293DD051F810
:101DC000042C0B1F1D49002AB8BF9B180A680C463B
:101DD00012B95A600B6030BD93420DD21968581881
:101DE000904201BF5A5852181A6042685A602360E4
:101DF00030BD994203D80A4651680029F9D11468C8
:101E000015199D420AD11B682344D01888421360DB
:101E100013D10868034413604B680DE002D90C230A
:101E2000036030BD1C681819884204BF08684968FF
:101E3000596004BF00191860536030BD5809002074
:101E400070B5CC1C24F0030408340C2C38BF0C24CF
:101E5000002C064603DA0C233360002070BD8C4250
:101E6000F9D3204A136810461946A1B10A68121B1B
:101E70000ED40B2A03D90A608B188C501FE08B42BA
:101E80000DBF5A684A685A60026018BF0B4616E0D8
:101E90000B464968E9E7144D2B681BB93046FEF73D
:101EA00075F9286030462146FEF770F9421C03465A
:101EB000D1D0C51C25F0030585420AD11C6003F171
:101EC0000B001A1D20F00700821A0AD051429950C7
:101ED00070BD3046E91AFEF759F90130BBD02B46E8
:101EE000ECE770BD58090020540900209368013BBD
:101EF000002B10B5936009DA9469A34202DBCBB2E0
:101F00000A2B03D1BDE81040FFF7CABC1368581C68
:101F100010601970C8B210BDF8B506460F461446D9
:101F2000D518AC4208D0304614F8011B3A46FFF7EA
:101F3000DDFF431CF5D100E00020F8BD2DE9F043A2
:101F40009DB00D4690460393064618B183690BB9C0
:101F5000FFF754FE754B9D4201D1756808E0744B44
:101F60009D4201D1B56803E0724B9D4208BFF56800
:101F7000AB891C070AD52B6943B1002309932023A1
:101F80008DF8293030238DF82A3041E0304629463B
:101F9000FFF7DAFC0028F0D04FF0FF30C2E0039AE0
:101FA000111D12680391002ABBBF524243F0020385
:101FB00007920792B8BF0493013423782E2B7BD06D
:101FC000DFF8808121784046032200F098FA38B18A
:101FD000049AC8EB00004023834013430493013468
:101FE000217855488DF82810062204F1010800F0E8
:101FF00086FA002800F08580504B002B78D1039B97
:10200000073323F0070308330393099B3B440993E9
:1020100043461C4613F8012B1AB9B4EB08090ED03D
:1020200002E0252AF5D1F8E73046294642464B46DC
:10203000FFF772FF013070D0099B4B44099323785E
:10204000002B6AD000234FF0FF32049307930592D0
:1020500006938DF853301A9304F101084446DFF8D3
:10206000E89021784846052200F049FA08F1010875
:10207000049B30B1C9EB000001228240134304935A
:10208000ECE7D80644BF20228DF85320190744BF3F
:102090002B228DF8532022782A2A80D007992346B4
:1020A0001C4601332278303A092A03D80A2000FB63
:1020B0000121F5E7079180E763782A2B0AD1039B7A
:1020C0001A1D1B680392002BB8BF4FF0FF33023478
:1020D000059375E7611C00220C4601312378303BE3
:1020E000092B03D80A2000FB0232F5E7059267E7C7
:1020F00003AB0093304604A92A46114BAFF300808E
:1021000007E003AB0093304604A92A460C4B00F0CD
:1021100093F8421C07467FF478AFAB895B063FF526
:102120003BAF09981DB0BDE8F08300BF2829000827
:1021300048290008682900089229000800000000CA
:10214000191F00088E290008882900082DE9F84386
:1021500091461F468A680B69DDF820809342B8BF1C
:102160001346C9F8003091F8432006460C4612B1D8
:102170000133C9F800302368990642BFD9F800300E
:102180000233C9F80030256815F006051CD094F814
:1021900043302268003318BF012392061FD5E1188F
:1021A0005A1C302081F84300224494F8451082F8EC
:1021B0004310023313E03046394604F1190201237B
:1021C000C047013007D00135E368D9F800209B1AD9
:1021D0009D42F0DBDBE74FF0FF30BDE8F88330468F
:1021E000394604F14302C0470130F4D02268D9F8DF
:1021F0000050E36802F00602042A08BF5D1B226952
:10220000A3680CBF25EAE57500259342C4BF9B1A5D
:10221000ED184FF00009A9450ADA3046394604F1B5
:102220001A020123C0470130D5D009F10109F2E7B4
:102230000020BDE8F88300002DE9FF410C46174659
:10224000227E6E2A984606460A9B01F1430100F061
:10225000AF8012D8632A23D00AD8002A00F0BC80AD
:10226000582A40F0CB8084F84520DFF804E257E09C
:10227000642A1ED0692A1CD0C0E0732A00F0B08006
:1022800009D86F2A2ED0702A40F0B880226842F018
:10229000200222603FE0752A24D0782A3BD0ADE0AE
:1022A0001A68111D1960136884F8423004F1420560
:1022B000A8E020681A6810F0800F02D0101D186086
:1022C00008E010F0400F02F10400186002D0B2F9EB
:1022D000003000E01368002B3EDA2D225B4284F8C8
:1022E000432039E020681A6810F0800F02D0101DDA
:1022F000186007E010F0400F02F10400186001D0F0
:10230000138800E01368227EDFF864E16F2A0CBFB7
:1023100008220A221CE07822DFF858E184F84520E0
:102320002268186812F0800F00F104051D6003D1C7
:10233000550601D5038800E00368D00744BF42F08A
:10234000200222601BB9226822F0200222601022A3
:10235000002084F8430002E0DFF814E10A226568F7
:10236000A560002DA2BF206820F00400206003B902
:1023700065B10D46B3FBF2F002FB10331EF80330DB
:1023800005F8013D03460028F4D100E00D46082A77
:102390000BD12368DA0708D5236962689A42DEBF49
:1023A000302305F8013C05F1FF35491B21612EE082
:1023B00025681A68606915F0800F03D0151D1D602F
:1023C000136808E015F0400F02F104051D60136862
:1023D00001D0188000E01860002323610D4616E04C
:1023E0001A68111D1960156862682846002100F0FE
:1023F00086F808B1401B6060636804E004F14205A0
:1024000084F8422001232361002384F84330CDF86F
:1024100000803046214603AA3B46FFF797FE013075
:1024200002D14FF0FF301FE0304639462A4623697B
:10243000C0470130F5D023689B0705D4E068039BB3
:102440009842B8BF18460FE00025E368039A9B1A2C
:102450009D42F3DA3046394604F119020123C047A0
:102460000130DED00135F0E704B0BDE8F08100BFF7
:1024700099290008AA29000810B50C46B1F90E10D8
:10248000FDF7A2FE0028ABBF636DA3891B1823F4E0
:102490008053ACBF6365A38110BD2DE9F0411D469B
:1024A0008B89DB0507460C46164605D5B1F90E109B
:1024B00000220223FDF795FEA389B4F90E1023F440
:1024C0008053A381384632462B46BDE8F041FDF7E4
:1024D0007FBE10B50C46B1F90E10FDF782FE431C0D
:1024E000A38915BF606523F4805343F48053A3810F
:1024F00018BFA38110BDB1F90E10FDF76DBE10B568
:10250000C9B202449042034606D01C788C4200F1C6
:102510000100F7D1184610BD002010BD4641494CBE
:10252000454420415353455254494F4E2E00257087
:102530000A002A2A2A2052494F54206B65726E6580
:102540006C2070616E69633A0A25730A0A002A2AB0
:102550002A2068616C7465642E0A0A00496E7369EA
:102560006465206973722025640A004E4D49204835
:10257000414E444C4552000A4953522073746163E2
:102580006B206F766572666C6F776564005374615B
:10259000636B20706F696E74657220636F72727501
:1025A000707465642C20726573657420746F207478
:1025B0006F70206F6620737461636B000A436F6EE7
:1025C00074657874206265666F72652068617264F4
:1025D0006661756C743A0020202072303A203078A1
:1025E0002530386C780A20202072313A2030782546
:1025F00030386C780A20202072323A20307825302A
:10260000386C780A20202072333A20307825303810
:102610006C780A0020207231323A20307825303828
:102620006C780A2020206C723A2030782530386C83
:10263000780A20202070633A2030782530386C7872
:102640000A20207073723A2030782530386C780A6E
:102650000A004653522F4641523A002043465352F5
:102660003A2030782530386C780A0020484653529A
:102670003A2030782530386C780A0020444653528E
:102680003A2030782530386C780A00204146535281
:102690003A2030782530386C780A00204246415282
:1026A0003A2030782530386C780A004D4D4641523A
:1026B0003A2030782530386C780A004D6973630011
:1026C0004558435F5245543A2030782530386C786D
:1026D0000A00417474656D7074696E6720746F20B0
:1026E0007265636F6E737472756374207374617452
:1026F0006520666F7220646562756767696E672E14
:102700002E2E00496E204744423A0A2020736574F9
:10271000202470633D3078256C780A202066726131
:102720006D6520300A202062740A000A4953522045
:10273000737461636B206F766572666C6F77656426
:10274000206279206174206C656173742025642097
:1027500062797465732E0A004841524420464155FF
:102760004C542048414E444C4552004D454D204D5F
:10277000414E4147452048414E444C455200425548
:1027800053204641554C542048414E444C4552003C
:102790005553414745204641554C542048414E44ED
:1027A0004C4552004445425547204D4F4E2048412C
:1027B0004E444C45520044554D4D592048414E44DD
:1027C0004C4552006D61696E28293A20546869733E
:1027D0002069732052494F5421202856657273692D
:1027E0006F6E3A20323031362E30372D6465766583
:1027F0006C2D3238312D6737383962322D696E735E
:1028000074616E742D636F6E74696B69290A006957
:10281000646C65006D61696E000A4572726F726565
:1028200020696E697A69616C697A7A617A696F6E1A
:10283000652044485431312E2E000A50726F67656E
:1028400074746F2027536D61727420426162792025
:10285000526F6F6D270A53747564656E74693A2000
:102860000A094E6963636F6C6F2720466162726963
:102870007A696F20506167616E6F200A09456E7238
:1028800069636F205665727A6927000A596F75204F
:102890006172652072756E6E696E672052494F5481
:1028A000206F6E2061286E2920257320626F61726F
:1028B000642E006E75636C656F2D66333334000AC9
:1028C0005468697320626F61726420666561747513
:1028D0007265732061286E29202573204D43552E83
:1028E0000073746D33326633000A25642025642E2C
:1028F000256400556E61626C6520746F20696E6995
:102900007469616C697A65204448542073656E73FC
:102910006F72202325690A000000004800040000AF
:10292000430000001C000020000000000000000028
:102930000000000000000000000000000000000097
:102940000000000000000000000000000000000087
:102950000000000000000000000000000000000077
:102960000000000000000000000000000000000067
:102970000000000000000000000000000000000057
:102980000000000000000000232D302B2000686CA8
:102990004C00656667454647003031323334353682
:1029A00037383941424344454600303132333435BB
:0C29B000363738396162636465660000E8
:1029BC00640B00205C0100204000000000000000BF
:1029CC00000000000F280008142800080000000078
:1029DC002829000848290008682900080000000080
:1029EC00000000000000000000000000202900088A
:1029FC0000000000000000000000000000000000CB
:102A0C0000000000000000000000000000000000BA
:102A1C0000000000000000000000000000000000AA
:102A2C000000000000000000000000001C0000205E
:0400000508000000EF
:00000001FF
